{
  "contractName": "GiveTogether",
  "abi": [
    {
      "inputs": [],
      "stateMutability": "nonpayable",
      "type": "constructor"
    },
    {
      "inputs": [
        {
          "internalType": "address",
          "name": "",
          "type": "address"
        }
      ],
      "name": "charities",
      "outputs": [
        {
          "internalType": "string",
          "name": "name",
          "type": "string"
        },
        {
          "internalType": "string",
          "name": "website",
          "type": "string"
        },
        {
          "internalType": "bool",
          "name": "isCharity",
          "type": "bool"
        }
      ],
      "stateMutability": "view",
      "type": "function",
      "constant": true
    },
    {
      "inputs": [
        {
          "internalType": "uint256",
          "name": "",
          "type": "uint256"
        }
      ],
      "name": "charityAccts",
      "outputs": [
        {
          "internalType": "address payable",
          "name": "",
          "type": "address"
        }
      ],
      "stateMutability": "view",
      "type": "function",
      "constant": true
    },
    {
      "inputs": [],
      "name": "currentCharity",
      "outputs": [
        {
          "internalType": "address payable",
          "name": "",
          "type": "address"
        }
      ],
      "stateMutability": "view",
      "type": "function",
      "constant": true
    },
    {
      "inputs": [],
      "name": "currentDate",
      "outputs": [
        {
          "internalType": "uint256",
          "name": "",
          "type": "uint256"
        }
      ],
      "stateMutability": "view",
      "type": "function",
      "constant": true
    },
    {
      "inputs": [],
      "name": "owner",
      "outputs": [
        {
          "internalType": "address",
          "name": "",
          "type": "address"
        }
      ],
      "stateMutability": "view",
      "type": "function",
      "constant": true
    },
    {
      "inputs": [],
      "name": "sendDonationTime",
      "outputs": [
        {
          "internalType": "uint256",
          "name": "",
          "type": "uint256"
        }
      ],
      "stateMutability": "view",
      "type": "function",
      "constant": true
    },
    {
      "inputs": [],
      "name": "totalDonation",
      "outputs": [
        {
          "internalType": "uint256",
          "name": "",
          "type": "uint256"
        }
      ],
      "stateMutability": "view",
      "type": "function",
      "constant": true
    },
    {
      "stateMutability": "payable",
      "type": "receive",
      "payable": true
    },
    {
      "inputs": [],
      "name": "generateNewCharity",
      "outputs": [
        {
          "internalType": "address payable",
          "name": "",
          "type": "address"
        }
      ],
      "stateMutability": "nonpayable",
      "type": "function"
    },
    {
      "inputs": [
        {
          "internalType": "address payable",
          "name": "_addr",
          "type": "address"
        },
        {
          "internalType": "string",
          "name": "_name",
          "type": "string"
        },
        {
          "internalType": "string",
          "name": "_website",
          "type": "string"
        }
      ],
      "name": "addCharity",
      "outputs": [],
      "stateMutability": "nonpayable",
      "type": "function"
    },
    {
      "inputs": [
        {
          "internalType": "address payable",
          "name": "_addr",
          "type": "address"
        }
      ],
      "name": "removeCharity",
      "outputs": [],
      "stateMutability": "nonpayable",
      "type": "function"
    },
    {
      "inputs": [
        {
          "internalType": "uint256",
          "name": "_time",
          "type": "uint256"
        }
      ],
      "name": "setSendDonationTime",
      "outputs": [],
      "stateMutability": "nonpayable",
      "type": "function"
    },
    {
      "inputs": [
        {
          "internalType": "address",
          "name": "addr",
          "type": "address"
        }
      ],
      "name": "getCharities",
      "outputs": [
        {
          "internalType": "address",
          "name": "",
          "type": "address"
        },
        {
          "internalType": "string",
          "name": "",
          "type": "string"
        },
        {
          "internalType": "string",
          "name": "",
          "type": "string"
        },
        {
          "internalType": "bool",
          "name": "",
          "type": "bool"
        }
      ],
      "stateMutability": "view",
      "type": "function",
      "constant": true
    },
    {
      "inputs": [],
      "name": "getNumCharities",
      "outputs": [
        {
          "internalType": "uint256",
          "name": "",
          "type": "uint256"
        }
      ],
      "stateMutability": "view",
      "type": "function",
      "constant": true
    }
  ],
  "bytecode": "0x608060405262093a8060065560006007553480156200001d57600080fd5b5033600160006101000a81548173ffffffffffffffffffffffffffffffffffffffff021916908373ffffffffffffffffffffffffffffffffffffffff160217905550620000f073d3f81260a44a1df7a7269cf66abd9c7e4f8cdcd16040518060400160405280600681526020017f48656966657200000000000000000000000000000000000000000000000000008152506040518060400160405280601781526020017f68747470733a2f2f7777772e6865696665722e6f72672f00000000000000000081525062000d4360201b60201c565b6200018173c1d5fd1f0d969075040988e37df3643af724995d6040518060400160405280600981526020017f47726163652041696400000000000000000000000000000000000000000000008152506040518060400160405280601581526020017f68747470733a2f2f67726163656169642e6f72672f000000000000000000000081525062000d4360201b60201c565b620001f6736e4c6adfa15cada2699fd2c16290ea1f71d0f9d76040518060400160405280601a81526020017f4272656173742043616e63657220537570706f72742028554b290000000000008152506040518060600160405280602381526020016200236a6023913962000d4360201b60201c565b620002877350990f09d4f0cb864b8e046e7edc749de410916b6040518060400160405280600381526020017f33353000000000000000000000000000000000000000000000000000000000008152506040518060400160405280601081526020017f68747470733a2f2f3335302e6f72672f0000000000000000000000000000000081525062000d4360201b60201c565b6200031873b189f76323678e094d4996d182a792e52369c0056040518060400160405280600381526020017f45464600000000000000000000000000000000000000000000000000000000008152506040518060400160405280601481526020017f68747470733a2f2f7777772e6566662e6f72672f00000000000000000000000081525062000d4360201b60201c565b620003a973998f25be40241ca5d8f5fcaf3591b5ed06ef3be76040518060400160405280601081526020017f46726565646f6d206f66205072657373000000000000000000000000000000008152506040518060400160405280601681526020017f68747470733a2f2f66726565646f6d2e70726573732f0000000000000000000081525062000d4360201b60201c565b6200043a73e000c5e5e74472b3584427c115712eb325cf3ff56040518060400160405280601081526020017f436f646520666f7220416d6572696361000000000000000000000000000000008152506040518060400160405280601f81526020017f68747470733a2f2f7777772e636f6465666f72616d65726963612e6f72672f0081525062000d4360201b60201c565b620004af73ef0050248ae8e5559bdc6357cc2574fcdf4348376040518060400160405280601481526020017f466967687420666f7220746865204675747572650000000000000000000000008152506040518060600160405280602281526020016200238d6022913962000d4360201b60201c565b6200054073c7464dbca260a8faf033460622b23467df5aea426040518060400160405280600d81526020017f47697665204469726563746c79000000000000000000000000000000000000008152506040518060400160405280601d81526020017f68747470733a2f2f7777772e676976656469726563746c792e6f72672f00000081525062000d4360201b60201c565b620005d1737cf2ebb5ca55a8bd671a020f8bdbaf07f60f26c16040518060400160405280600981526020017f476976652057656c6c00000000000000000000000000000000000000000000008152506040518060400160405280601981526020017f68747470733a2f2f7777772e6769766577656c6c2e6f72672f0000000000000081525062000d4360201b60201c565b62000646733ea5f030ade93a8d0400dcbdac259e7348164fc16040518060400160405280601381526020017f496e646578206f662043656e736f727368697000000000000000000000000000815250604051806060016040528060228152602001620023486022913962000d4360201b60201c565b620006d77395a647b3d8a3f11176badb799b9499c671fa243a6040518060400160405280600c81526020017f4b68616e2041636164656d7900000000000000000000000000000000000000008152506040518060400160405280601c81526020017f68747470733a2f2f7777772e6b68616e61636164656d792e6f72672f0000000081525062000d4360201b60201c565b620007687319ddd94b94d3c68385c897846ab44ac99dbfae0f6040518060400160405280600b81526020017f546f722050726f6a6563740000000000000000000000000000000000000000008152506040518060400160405280601b81526020017f68747470733a2f2f7777772e746f7270726f6a6563742e6f72672f000000000081525062000d4360201b60201c565b620007f9733a9f94de63612f4a117adf20f745bd420d148ac16040518060400160405280601281526020017f554e49434546204e6577205a65616c616e6400000000000000000000000000008152506040518060400160405280601a81526020017f68747470733a2f2f7777772e756e696365662e6f72672e6e7a2f00000000000081525062000d4360201b60201c565b6200088a73c94bd2b79921daa2395eb74934d867346c4c71d46040518060400160405280601081526020017f5261696e666f72657374205472757374000000000000000000000000000000008152506040518060400160405280602081526020017f68747470733a2f2f7777772e7261696e666f7265737474727573742e6f72672f81525062000d4360201b60201c565b6200091b730332bfeb38bf8b225ceedf1ebf5f0e3af0bb81cc6040518060400160405280600c81526020017f4f70656e204c69627261727900000000000000000000000000000000000000008152506040518060400160405280601881526020017f68747470733a2f2f6f70656e6c6962726172792e6f72672f000000000000000081525062000d4360201b60201c565b620009ac73e0c83d05db000393b22f85432f047167a5d650a86040518060400160405280600c81526020017f46726565436f646543616d7000000000000000000000000000000000000000008152506040518060400160405280601d81526020017f68747470733a2f2f7777772e66726565636f646563616d702e6f72672f00000081525062000d4360201b60201c565b62000a3d73682e9f760c5be1a954a3e0499c5fb43faf4b86fb6040518060400160405280600e81526020017f446576656c6f70204166726963610000000000000000000000000000000000008152506040518060400160405280601e81526020017f68747470733a2f2f7777772e646576656c6f706166726963612e6f72672f000081525062000d4360201b60201c565b62000ace730aad8b37e1f9a2aa3088c5bd3235bb120f40e8ad6040518060400160405280601481526020017f546865204c7570757320466f756e646174696f6e0000000000000000000000008152506040518060400160405280601681526020017f68747470733a2f2f7777772e6c757075732e6f72672f0000000000000000000081525062000d4360201b60201c565b62000b43736b0d647af6c9ff7ce6d507849eabf649d045623e6040518060400160405280601581526020017f506174687761797320746f20456475636174696f6e0000000000000000000000815250604051806060016040528060338152602001620023d36033913962000d4360201b60201c565b62000bb8730a91bc5990ebb27131ff81e97e7e2339433d16716040518060400160405280601581526020017f5261696e666f7265737420466f756e646174696f6e0000000000000000000000815250604051806060016040528060248152602001620023af6024913962000d4360201b60201c565b62092c7060058190555042600481905550600160009054906101000a900473ffffffffffffffffffffffffffffffffffffffff1642604051602001808373ffffffffffffffffffffffffffffffffffffffff1673ffffffffffffffffffffffffffffffffffffffff1660601b81526014018281526020019250505060405160208183030381529060405280519060200120600881905550600060085433604051602001808381526020018273ffffffffffffffffffffffffffffffffffffffff1673ffffffffffffffffffffffffffffffffffffffff1660601b815260140192505050604051602081830303815290604052805190602001209050600380805490508260001c8162000cc657fe5b068154811062000cd257fe5b9060005260206000200160009054906101000a900473ffffffffffffffffffffffffffffffffffffffff166000806101000a81548173ffffffffffffffffffffffffffffffffffffffff021916908373ffffffffffffffffffffffffffffffffffffffff1602179055505062000fce565b600160009054906101000a900473ffffffffffffffffffffffffffffffffffffffff1673ffffffffffffffffffffffffffffffffffffffff163373ffffffffffffffffffffffffffffffffffffffff161462000d9e57600080fd5b600260008473ffffffffffffffffffffffffffffffffffffffff1673ffffffffffffffffffffffffffffffffffffffff16815260200190815260200160002060020160009054906101000a900460ff161562000df957600080fd5b604051806060016040528083815260200182815260200160011515815250600260008573ffffffffffffffffffffffffffffffffffffffff1673ffffffffffffffffffffffffffffffffffffffff168152602001908152602001600020600082015181600001908051906020019062000e7492919062000f1f565b50602082015181600101908051906020019062000e9392919062000f1f565b5060408201518160020160006101000a81548160ff0219169083151502179055509050506003839080600181540180825580915050600190039060005260206000200160009091909190916101000a81548173ffffffffffffffffffffffffffffffffffffffff021916908373ffffffffffffffffffffffffffffffffffffffff160217905550505050565b828054600181600116156101000203166002900490600052602060002090601f016020900481019282601f1062000f6257805160ff191683800117855562000f93565b8280016001018555821562000f93579182015b8281111562000f9257825182559160200191906001019062000f75565b5b50905062000fa2919062000fa6565b5090565b62000fcb91905b8082111562000fc757600081600090555060010162000fad565b5090565b90565b61136a8062000fde6000396000f3fe6080604052600436106100c65760003560e01c8063999c89e81161007f578063bc0bc97a11610059578063bc0bc97a146107a6578063bc39206e146107e1578063ee2ac05f14610838578063f00cab2f146108635761019d565b8063999c89e81461058a578063a2916caf146106fe578063abefe591146107555761019d565b8063139580fe146101a25780632478239a1461021d5780633843058f1461035e5780634f99b7c5146104dd578063658be92f146105085780638da5cb5b146105335761019d565b3661019d57600034111561013f5734600754016007819055506000809054906101000a900473ffffffffffffffffffffffffffffffffffffffff1673ffffffffffffffffffffffffffffffffffffffff166108fc479081150290604051600060405180830381858888f1935050505061013e57600080fd5b5b60055460045401421061019b574260048190555061015b61088e565b6000806101000a81548173ffffffffffffffffffffffffffffffffffffffff021916908373ffffffffffffffffffffffffffffffffffffffff1602179055505b005b600080fd5b3480156101ae57600080fd5b506101db600480360360208110156101c557600080fd5b8101908080359060200190929190505050610b02565b604051808273ffffffffffffffffffffffffffffffffffffffff1673ffffffffffffffffffffffffffffffffffffffff16815260200191505060405180910390f35b34801561022957600080fd5b5061026c6004803603602081101561024057600080fd5b81019080803573ffffffffffffffffffffffffffffffffffffffff169060200190929190505050610b3e565b60405180806020018060200184151515158152602001838103835286818151815260200191508051906020019080838360005b838110156102ba57808201518184015260208101905061029f565b50505050905090810190601f1680156102e75780820380516001836020036101000a031916815260200191505b50838103825285818151815260200191508051906020019080838360005b83811015610320578082015181840152602081019050610305565b50505050905090810190601f16801561034d5780820380516001836020036101000a031916815260200191505b509550505050505060405180910390f35b34801561036a57600080fd5b506104db6004803603606081101561038157600080fd5b81019080803573ffffffffffffffffffffffffffffffffffffffff169060200190929190803590602001906401000000008111156103be57600080fd5b8201836020820111156103d057600080fd5b803590602001918460018302840111640100000000831117156103f257600080fd5b91908080601f016020809104026020016040519081016040528093929190818152602001838380828437600081840152601f19601f8201169050808301925050505050505091929192908035906020019064010000000081111561045557600080fd5b82018360208201111561046757600080fd5b8035906020019184600183028401116401000000008311171561048957600080fd5b91908080601f016020809104026020016040519081016040528093929190818152602001838380828437600081840152601f19601f820116905080830192505050505050509192919290505050610ca5565b005b3480156104e957600080fd5b506104f2610e7b565b6040518082815260200191505060405180910390f35b34801561051457600080fd5b5061051d610e81565b6040518082815260200191505060405180910390f35b34801561053f57600080fd5b50610548610e8e565b604051808273ffffffffffffffffffffffffffffffffffffffff1673ffffffffffffffffffffffffffffffffffffffff16815260200191505060405180910390f35b34801561059657600080fd5b506105d9600480360360208110156105ad57600080fd5b81019080803573ffffffffffffffffffffffffffffffffffffffff169060200190929190505050610eb4565b604051808573ffffffffffffffffffffffffffffffffffffffff1673ffffffffffffffffffffffffffffffffffffffff168152602001806020018060200184151515158152602001838103835286818151815260200191508051906020019080838360005b8381101561065957808201518184015260208101905061063e565b50505050905090810190601f1680156106865780820380516001836020036101000a031916815260200191505b50838103825285818151815260200191508051906020019080838360005b838110156106bf5780820151818401526020810190506106a4565b50505050905090810190601f1680156106ec5780820380516001836020036101000a031916815260200191505b50965050505050505060405180910390f35b34801561070a57600080fd5b506107136110d7565b604051808273ffffffffffffffffffffffffffffffffffffffff1673ffffffffffffffffffffffffffffffffffffffff16815260200191505060405180910390f35b34801561076157600080fd5b506107a46004803603602081101561077857600080fd5b81019080803573ffffffffffffffffffffffffffffffffffffffff1690602001909291905050506110fc565b005b3480156107b257600080fd5b506107df600480360360208110156107c957600080fd5b810190808035906020019092919050505061121f565b005b3480156107ed57600080fd5b506107f661088e565b604051808273ffffffffffffffffffffffffffffffffffffffff1673ffffffffffffffffffffffffffffffffffffffff16815260200191505060405180910390f35b34801561084457600080fd5b5061084d611283565b6040518082815260200191505060405180910390f35b34801561086f57600080fd5b50610878611289565b6040518082815260200191505060405180910390f35b6000600160009054906101000a900473ffffffffffffffffffffffffffffffffffffffff1673ffffffffffffffffffffffffffffffffffffffff163373ffffffffffffffffffffffffffffffffffffffff16146108ea57600080fd5b600160009054906101000a900473ffffffffffffffffffffffffffffffffffffffff1642604051602001808373ffffffffffffffffffffffffffffffffffffffff1673ffffffffffffffffffffffffffffffffffffffff1660601b81526014018281526020019250505060405160208183030381529060405280519060200120600881905550600060085433604051602001808381526020018273ffffffffffffffffffffffffffffffffffffffff1673ffffffffffffffffffffffffffffffffffffffff1660601b815260140192505050604051602081830303815290604052805190602001209050600380805490508260001c816109e657fe5b06815481106109f157fe5b9060005260206000200160009054906101000a900473ffffffffffffffffffffffffffffffffffffffff166000806101000a81548173ffffffffffffffffffffffffffffffffffffffff021916908373ffffffffffffffffffffffffffffffffffffffff160217905550600260008060009054906101000a900473ffffffffffffffffffffffffffffffffffffffff1673ffffffffffffffffffffffffffffffffffffffff1673ffffffffffffffffffffffffffffffffffffffff16815260200190815260200160002060020160009054906101000a900460ff16610ada57610ad861088e565b505b6000809054906101000a900473ffffffffffffffffffffffffffffffffffffffff1691505090565b60038181548110610b0f57fe5b906000526020600020016000915054906101000a900473ffffffffffffffffffffffffffffffffffffffff1681565b6002602052806000526040600020600091509050806000018054600181600116156101000203166002900480601f016020809104026020016040519081016040528092919081815260200182805460018160011615610100020316600290048015610bea5780601f10610bbf57610100808354040283529160200191610bea565b820191906000526020600020905b815481529060010190602001808311610bcd57829003601f168201915b505050505090806001018054600181600116156101000203166002900480601f016020809104026020016040519081016040528092919081815260200182805460018160011615610100020316600290048015610c885780601f10610c5d57610100808354040283529160200191610c88565b820191906000526020600020905b815481529060010190602001808311610c6b57829003601f168201915b5050505050908060020160009054906101000a900460ff16905083565b600160009054906101000a900473ffffffffffffffffffffffffffffffffffffffff1673ffffffffffffffffffffffffffffffffffffffff163373ffffffffffffffffffffffffffffffffffffffff1614610cff57600080fd5b600260008473ffffffffffffffffffffffffffffffffffffffff1673ffffffffffffffffffffffffffffffffffffffff16815260200190815260200160002060020160009054906101000a900460ff1615610d5957600080fd5b604051806060016040528083815260200182815260200160011515815250600260008573ffffffffffffffffffffffffffffffffffffffff1673ffffffffffffffffffffffffffffffffffffffff1681526020019081526020016000206000820151816000019080519060200190610dd292919061128f565b506020820151816001019080519060200190610def92919061128f565b5060408201518160020160006101000a81548160ff0219169083151502179055509050506003839080600181540180825580915050600190039060005260206000200160009091909190916101000a81548173ffffffffffffffffffffffffffffffffffffffff021916908373ffffffffffffffffffffffffffffffffffffffff160217905550505050565b60045481565b6000600380549050905090565b600160009054906101000a900473ffffffffffffffffffffffffffffffffffffffff1681565b6000606080600084600260008773ffffffffffffffffffffffffffffffffffffffff1673ffffffffffffffffffffffffffffffffffffffff168152602001908152602001600020600001600260008873ffffffffffffffffffffffffffffffffffffffff1673ffffffffffffffffffffffffffffffffffffffff168152602001908152602001600020600101600260008973ffffffffffffffffffffffffffffffffffffffff1673ffffffffffffffffffffffffffffffffffffffff16815260200190815260200160002060020160009054906101000a900460ff16828054600181600116156101000203166002900480601f0160208091040260200160405190810160405280929190818152602001828054600181600116156101000203166002900480156110255780601f10610ffa57610100808354040283529160200191611025565b820191906000526020600020905b81548152906001019060200180831161100857829003601f168201915b50505050509250818054600181600116156101000203166002900480601f0160208091040260200160405190810160405280929190818152602001828054600181600116156101000203166002900480156110c15780601f10611096576101008083540402835291602001916110c1565b820191906000526020600020905b8154815290600101906020018083116110a457829003601f168201915b5050505050915093509350935093509193509193565b6000809054906101000a900473ffffffffffffffffffffffffffffffffffffffff1681565b600160009054906101000a900473ffffffffffffffffffffffffffffffffffffffff1673ffffffffffffffffffffffffffffffffffffffff163373ffffffffffffffffffffffffffffffffffffffff161461115657600080fd5b60008090505b60038054905081101561121b578173ffffffffffffffffffffffffffffffffffffffff166003828154811061118d57fe5b9060005260206000200160009054906101000a900473ffffffffffffffffffffffffffffffffffffffff1673ffffffffffffffffffffffffffffffffffffffff161461120e57600381815481106111e057fe5b9060005260206000200160006101000a81549073ffffffffffffffffffffffffffffffffffffffff02191690555b808060010191505061115c565b5050565b600160009054906101000a900473ffffffffffffffffffffffffffffffffffffffff1673ffffffffffffffffffffffffffffffffffffffff163373ffffffffffffffffffffffffffffffffffffffff161461127957600080fd5b8060058190555050565b60075481565b60055481565b828054600181600116156101000203166002900490600052602060002090601f016020900481019282601f106112d057805160ff19168380011785556112fe565b828001600101855582156112fe579182015b828111156112fd5782518255916020019190600101906112e2565b5b50905061130b919061130f565b5090565b61133191905b8082111561132d576000816000905550600101611315565b5090565b9056fea26469706673582212205b40637ec3acda393d8331ec7abf8251d7f64bf25c3688adee94255c0a53341764736f6c6343000601003368747470733a2f2f7777772e696e6465786f6e63656e736f72736869702e6f72672f68747470733a2f2f62726561737463616e636572737570706f72742e6f72672e756b2f68747470733a2f2f7777772e6669676874666f727468656675747572652e6f72672f68747470733a2f2f7777772e7261696e666f72657374666f756e646174696f6e2e6f726768747470733a2f2f7777772e7061746877617973746f656475636174696f6e2e63612f646f6e6174652d657468657265756d2f",
  "source": "pragma solidity ^0.6.1;\n/**\n* Give Together\n* a no loss way to give to a\n* new charity each week\n* @author Lucas Kohorst\n* @dev This contract accepts ERC20 token which\n* if the donation time is past will forward the \n* tokens to a new charity each week. This can be \n* used stand alone but is intended to be designated\n* as a hat in the rToken project https://github.com/rtoken-project/rtoken-contracts\n* accured interest will be redeemed at this contract address\n* which will then be sent to the charity of the week\n*/\ncontract GiveTogether  {\n    address payable public currentCharity;\n    address public owner;\n    mapping (address => Charity) public charities;\n    address payable [] public charityAccts;\n\n    uint256 public currentDate;\n    uint256 public sendDonationTime;\n    uint256 private oneWeek = 1 weeks;\n    uint256 public totalDonation = 0;\n    bytes32 private N;\n\n    struct Charity  {\n        string name;\n        string website;\n        bool isCharity;\n    }\n\n    /**\n    * Modifier for owner specific functions\n    */\n    modifier isOwner() {\n        if (msg.sender != owner) revert();\n        _;\n    }\n\n    /**\n    * Constructor only run on contract creation\n    * adds intial charities, sets owner\n    * sets current date, current charity and \n    * current donation time\n    */\n    constructor() public {\n        // Setting the owner\n        owner = msg.sender;\n\n        // Adding intial charities\n        addCharity(0xD3F81260a44A1df7A7269CF66Abd9c7e4f8CdcD1, \"Heifer\", \"https://www.heifer.org/\"); \n        addCharity(0xc1D5FD1F0D969075040988e37Df3643Af724995D, \"Grace Aid\", \"https://graceaid.org/\");\n        addCharity(0x6e4C6ADFA15cADa2699Fd2c16290ea1F71D0f9D7, \"Breast Cancer Support (UK)\", \"https://breastcancersupport.org.uk/\");\n        addCharity(0x50990F09d4f0cb864b8e046e7edC749dE410916b, \"350\", \"https://350.org/\");\n        addCharity(0xb189f76323678E094D4996d182A792E52369c005, \"EFF\", \"https://www.eff.org/\");\n        addCharity(0x998F25Be40241CA5D8F5fCaF3591B5ED06EF3Be7, \"Freedom of Press\", \"https://freedom.press/\");\n        addCharity(0xE000c5E5E74472B3584427c115712Eb325cf3ff5, \"Code for America\", \"https://www.codeforamerica.org/\");\n        addCharity(0xEF0050248aE8E5559Bdc6357cc2574fcDF434837, \"Fight for the Future\", \"https://www.fightforthefuture.org/\");\n        addCharity(0xc7464dbcA260A8faF033460622B23467Df5AEA42, \"Give Directly\", \"https://www.givedirectly.org/\");\n        addCharity(0x7cF2eBb5Ca55A8bd671A020F8BDbAF07f60F26C1, \"Give Well\", \"https://www.givewell.org/\");\n        addCharity(0x3ea5f030ade93A8D0400dcbDAC259e7348164fc1, \"Index of Censorship\", \"https://www.indexoncensorship.org/\");\n        addCharity(0x95a647B3d8a3F11176BAdB799b9499C671fa243a, \"Khan Academy\", \"https://www.khanacademy.org/\");\n        addCharity(0x19DdD94B94D3c68385c897846AB44Ac99DBFAe0f, \"Tor Project\", \"https://www.torproject.org/\");\n        addCharity(0x3a9f94DE63612f4A117Adf20F745bd420d148ac1, \"UNICEF New Zealand\", \"https://www.unicef.org.nz/\");\n        addCharity(0xC94BD2b79921DAa2395EB74934D867346C4C71d4, \"Rainforest Trust\", \"https://www.rainforesttrust.org/\");\n        addCharity(0x0332bfEB38bF8b225cEEdF1EbF5F0e3Af0bb81CC, \"Open Library\", \"https://openlibrary.org/\");\n        addCharity(0xe0c83D05DB000393B22F85432F047167a5d650a8, \"FreeCodeCamp\", \"https://www.freecodecamp.org/\");\n        addCharity(0x682E9f760C5Be1A954A3e0499c5fb43faf4B86fB, \"Develop Africa\", \"https://www.developafrica.org/\");\n        addCharity(0x0AAD8B37E1f9a2AA3088c5bd3235bB120F40E8aD, \"The Lupus Foundation\", \"https://www.lupus.org/\");\t\n        addCharity(0x6B0d647Af6c9ff7CE6D507849eAbF649D045623e, \"Pathways to Education\", \"https://www.pathwaystoeducation.ca/donate-ethereum/\");\n        addCharity(0x0a91BC5990ebB27131FF81E97E7e2339433d1671, \"Rainforest Foundation\", \"https://www.rainforestfoundation.org\");\n\n        // Setting the default donation time\n        // to an hour before a week is over\n        sendDonationTime = 1 weeks - 1 hours;\n        currentDate = now;\n        // Generating random charity from hash of address\n        // Setting the nonce with the owner of the contract and time\n        N = keccak256(abi.encodePacked(owner, now));\n        bytes32 hash = keccak256(abi.encodePacked(N, msg.sender));\n        currentCharity = charityAccts[uint(hash) % charityAccts.length];\n    }   \n    \n    /**\n    * Default payable function; Gets called when an ERC20 token is sent\n    * to the contracta nd forwards\n    * it to the destination address\n    * which is the charity of the week\n    */\n    receive() external payable {\n        // Checking that there is an ERC20 token being sent \n        // and that the donation time is passed\n        if (msg.value > 0) {\n            // Adding to total donation\n            totalDonation = totalDonation +  msg.value;\n            // Sends to current charity also reverts the transfer.\n            if (!currentCharity.send(address(this).balance)) revert();\n        }\n        // Getting a new charity and send donation time\n        // are less than current time that means\n        // the previous charity expired\n        if(now >= currentDate + sendDonationTime) {\n           currentDate = now;\n           currentCharity = generateNewCharity();\n        }\n    }\n\n\n    /**\n    * If need a new charity can be generated\n    * @return currentCharity the address of the current charity\n    * @dev only callable by owner\n    */\n    function generateNewCharity() public isOwner returns (address payable) {\n        // Generating new nonce from the owner and the time\n        N = keccak256(abi.encodePacked(owner, now));\n        bytes32 hash = keccak256(abi.encodePacked(N, msg.sender));\n        currentCharity = charityAccts[uint(hash) % charityAccts.length];\n        if (!charities[currentCharity].isCharity) generateNewCharity();\n        return currentCharity;\n    }\n\n\n    /**\n    * Adds a charity if it is not there already\n    * @param _addr charity's donation address\n    * @param _name charity's name\n    * @param _website charity's website\n    * @dev only callable by owner\n    */\n    function addCharity(address payable _addr, string memory _name, string memory _website) public isOwner {\n        if (charities[_addr].isCharity) revert();\n        charities[_addr] = Charity(_name, _website, true);\n        charityAccts.push(_addr);\n    }\n\n    /**\n    * Removes a charity\n    * @param _addr charity's donation address\n    * @dev only callable by owner\n    * @dev https://ethereum.stackexchange.com/questions/1527/how-to-delete-an-element-at-a-certain-index-in-an-array\n    */\n    function removeCharity(address payable _addr) public isOwner {\n       for (uint i = 0; i < charityAccts.length; i++) {\n           if (charityAccts[i] != _addr) {\n               // Will leave empty space in the array\n               delete charityAccts[i];\n           }\n       }\n    }\n\n    /**\n    * Sets time to generate new charity\n    * @param _time donation time\n    */\n    function setSendDonationTime(uint256 _time) public isOwner {\n        sendDonationTime = _time;\n    }\n\n    /**\n    * Gets name and website for each charity\n    * based on addres\n    * @param addr address to get charity by\n    * @return addr address of the charity\n    * @return name charity name\n    * @return website charity's website\n    */\n    function getCharities(address addr) public view returns (address, string memory, string memory, bool) {\n        return (addr, charities[addr].name, charities[addr].website, charities[addr].isCharity);\n    }\n\n    /** \n    * Get number of charities\n    * @return charityAccts length how many charities there are\n    */\n    function getNumCharities() public view returns(uint) {\n        return charityAccts.length;\n    }\n\n}",
  "sourcePath": "/Users/lucaskohorst/Desktop/GitHub/GiveTogether/contracts/GiveTogether.sol",
  "compiler": {
    "name": "solc",
    "version": "0.6.1+commit.e6f7d5a4.Emscripten.clang"
  },
  "schemaVersion": "3.0.20",
  "updatedAt": "2020-01-23T21:00:33.888Z",
  "networkType": "ethereum",
  "devdoc": {
    "author": "Lucas Kohorst",
    "details": "This contract accepts ERC20 token which if the donation time is past will forward the  tokens to a new charity each week. This can be  used stand alone but is intended to be designated as a hat in the rToken project https://github.com/rtoken-project/rtoken-contracts accured interest will be redeemed at this contract address which will then be sent to the charity of the week",
    "methods": {
      "addCharity(address,string,string)": {
        "details": "only callable by owner",
        "params": {
          "_addr": "charity's donation address",
          "_name": "charity's name",
          "_website": "charity's website"
        }
      },
      "generateNewCharity()": {
        "details": "only callable by owner",
        "returns": {
          "_0": "currentCharity the address of the current charity"
        }
      },
      "getCharities(address)": {
        "params": {
          "addr": "address to get charity by"
        },
        "returns": {
          "_0": "addr address of the charity",
          "_1": "name charity name",
          "_2": "website charity's website"
        }
      },
      "removeCharity(address)": {
        "details": "only callable by ownerhttps://ethereum.stackexchange.com/questions/1527/how-to-delete-an-element-at-a-certain-index-in-an-array",
        "params": {
          "_addr": "charity's donation address"
        }
      },
      "setSendDonationTime(uint256)": {
        "params": {
          "_time": "donation time"
        }
      }
    }
  },
  "userdoc": {
    "methods": {
      "addCharity(address,string,string)": {
        "notice": "Adds a charity if it is not there already"
      },
      "constructor": "Constructor only run on contract creation adds intial charities, sets owner sets current date, current charity and  current donation time",
      "generateNewCharity()": {
        "notice": "If need a new charity can be generated"
      },
      "getCharities(address)": {
        "notice": "Gets name and website for each charity based on addres"
      },
      "getNumCharities()": {
        "notice": "Get number of charities"
      },
      "removeCharity(address)": {
        "notice": "Removes a charity"
      },
      "setSendDonationTime(uint256)": {
        "notice": "Sets time to generate new charity"
      }
    },
    "notice": "Give Together a no loss way to give to a new charity each week"
  }
}